{
  "_format": "hh-sol-artifact-1",
  "contractName": "Commerce",
  "sourceName": "contracts/Commerce.sol",
  "abi": [
    {
      "inputs": [],
      "stateMutability": "nonpayable",
      "type": "constructor"
    },
    {
      "anonymous": false,
      "inputs": [
        {
          "indexed": false,
          "internalType": "address",
          "name": "buyer",
          "type": "address"
        },
        {
          "indexed": false,
          "internalType": "uint256",
          "name": "orderId",
          "type": "uint256"
        },
        {
          "indexed": false,
          "internalType": "uint256",
          "name": "itemId",
          "type": "uint256"
        }
      ],
      "name": "Buy",
      "type": "event"
    },
    {
      "anonymous": false,
      "inputs": [
        {
          "indexed": false,
          "internalType": "string",
          "name": "name",
          "type": "string"
        },
        {
          "indexed": false,
          "internalType": "uint256",
          "name": "cost",
          "type": "uint256"
        },
        {
          "indexed": false,
          "internalType": "uint256",
          "name": "quantity",
          "type": "uint256"
        }
      ],
      "name": "List",
      "type": "event"
    },
    {
      "inputs": [
        {
          "internalType": "uint256",
          "name": "_id",
          "type": "uint256"
        }
      ],
      "name": "buy",
      "outputs": [],
      "stateMutability": "payable",
      "type": "function"
    },
    {
      "inputs": [
        {
          "internalType": "uint256",
          "name": "_id",
          "type": "uint256"
        }
      ],
      "name": "getListItemById",
      "outputs": [
        {
          "components": [
            {
              "internalType": "uint256",
              "name": "id",
              "type": "uint256"
            },
            {
              "internalType": "string",
              "name": "name",
              "type": "string"
            },
            {
              "internalType": "string",
              "name": "category",
              "type": "string"
            },
            {
              "internalType": "string",
              "name": "image",
              "type": "string"
            },
            {
              "internalType": "uint256",
              "name": "cost",
              "type": "uint256"
            },
            {
              "internalType": "uint256",
              "name": "rating",
              "type": "uint256"
            },
            {
              "internalType": "uint256",
              "name": "stock",
              "type": "uint256"
            }
          ],
          "internalType": "struct Commerce.Item",
          "name": "",
          "type": "tuple"
        }
      ],
      "stateMutability": "view",
      "type": "function"
    },
    {
      "inputs": [
        {
          "internalType": "uint256",
          "name": "",
          "type": "uint256"
        }
      ],
      "name": "items",
      "outputs": [
        {
          "internalType": "uint256",
          "name": "id",
          "type": "uint256"
        },
        {
          "internalType": "string",
          "name": "name",
          "type": "string"
        },
        {
          "internalType": "string",
          "name": "category",
          "type": "string"
        },
        {
          "internalType": "string",
          "name": "image",
          "type": "string"
        },
        {
          "internalType": "uint256",
          "name": "cost",
          "type": "uint256"
        },
        {
          "internalType": "uint256",
          "name": "rating",
          "type": "uint256"
        },
        {
          "internalType": "uint256",
          "name": "stock",
          "type": "uint256"
        }
      ],
      "stateMutability": "view",
      "type": "function"
    },
    {
      "inputs": [
        {
          "internalType": "uint256",
          "name": "_id",
          "type": "uint256"
        },
        {
          "internalType": "string",
          "name": "_name",
          "type": "string"
        },
        {
          "internalType": "string",
          "name": "_category",
          "type": "string"
        },
        {
          "internalType": "string",
          "name": "_image",
          "type": "string"
        },
        {
          "internalType": "uint256",
          "name": "_cost",
          "type": "uint256"
        },
        {
          "internalType": "uint256",
          "name": "_rating",
          "type": "uint256"
        },
        {
          "internalType": "uint256",
          "name": "_stock",
          "type": "uint256"
        }
      ],
      "name": "list",
      "outputs": [],
      "stateMutability": "nonpayable",
      "type": "function"
    },
    {
      "inputs": [],
      "name": "name",
      "outputs": [
        {
          "internalType": "string",
          "name": "",
          "type": "string"
        }
      ],
      "stateMutability": "view",
      "type": "function"
    },
    {
      "inputs": [
        {
          "internalType": "address",
          "name": "",
          "type": "address"
        }
      ],
      "name": "orderCount",
      "outputs": [
        {
          "internalType": "uint256",
          "name": "",
          "type": "uint256"
        }
      ],
      "stateMutability": "view",
      "type": "function"
    },
    {
      "inputs": [
        {
          "internalType": "address",
          "name": "",
          "type": "address"
        },
        {
          "internalType": "uint256",
          "name": "",
          "type": "uint256"
        }
      ],
      "name": "orders",
      "outputs": [
        {
          "internalType": "uint256",
          "name": "time",
          "type": "uint256"
        },
        {
          "components": [
            {
              "internalType": "uint256",
              "name": "id",
              "type": "uint256"
            },
            {
              "internalType": "string",
              "name": "name",
              "type": "string"
            },
            {
              "internalType": "string",
              "name": "category",
              "type": "string"
            },
            {
              "internalType": "string",
              "name": "image",
              "type": "string"
            },
            {
              "internalType": "uint256",
              "name": "cost",
              "type": "uint256"
            },
            {
              "internalType": "uint256",
              "name": "rating",
              "type": "uint256"
            },
            {
              "internalType": "uint256",
              "name": "stock",
              "type": "uint256"
            }
          ],
          "internalType": "struct Commerce.Item",
          "name": "item",
          "type": "tuple"
        }
      ],
      "stateMutability": "view",
      "type": "function"
    },
    {
      "inputs": [],
      "name": "owner",
      "outputs": [
        {
          "internalType": "address",
          "name": "",
          "type": "address"
        }
      ],
      "stateMutability": "view",
      "type": "function"
    },
    {
      "inputs": [],
      "name": "withdraw",
      "outputs": [],
      "stateMutability": "nonpayable",
      "type": "function"
    }
  ],
  "bytecode": "0x60806040523480156200001157600080fd5b506040518060400160405280600a81526020017f452d436f6d6d6572636500000000000000000000000000000000000000000000815250600090816200005891906200031a565b5033600160006101000a81548173ffffffffffffffffffffffffffffffffffffffff021916908373ffffffffffffffffffffffffffffffffffffffff16021790555062000401565b600081519050919050565b7f4e487b7100000000000000000000000000000000000000000000000000000000600052604160045260246000fd5b7f4e487b7100000000000000000000000000000000000000000000000000000000600052602260045260246000fd5b600060028204905060018216806200012257607f821691505b602082108103620001385762000137620000da565b5b50919050565b60008190508160005260206000209050919050565b60006020601f8301049050919050565b600082821b905092915050565b600060088302620001a27fffffffffffffffffffffffffffffffffffffffffffffffffffffffffffffffff8262000163565b620001ae868362000163565b95508019841693508086168417925050509392505050565b6000819050919050565b6000819050919050565b6000620001fb620001f5620001ef84620001c6565b620001d0565b620001c6565b9050919050565b6000819050919050565b6200021783620001da565b6200022f620002268262000202565b84845462000170565b825550505050565b600090565b6200024662000237565b620002538184846200020c565b505050565b5b818110156200027b576200026f6000826200023c565b60018101905062000259565b5050565b601f821115620002ca5762000294816200013e565b6200029f8462000153565b81016020851015620002af578190505b620002c7620002be8562000153565b83018262000258565b50505b505050565b600082821c905092915050565b6000620002ef60001984600802620002cf565b1980831691505092915050565b60006200030a8383620002dc565b9150826002028217905092915050565b6200032582620000a0565b67ffffffffffffffff811115620003415762000340620000ab565b5b6200034d825462000109565b6200035a8282856200027f565b600060209050601f8311600181146200039257600084156200037d578287015190505b620003898582620002fc565b865550620003f9565b601f198416620003a2866200013e565b60005b82811015620003cc57848901518255600182019150602085019450602081019050620003a5565b86831015620003ec5784890151620003e8601f891682620002dc565b8355505b6001600288020188555050505b505050505050565b611afb80620004116000396000f3fe6080604052600436106100865760003560e01c80638da5cb5b116100595780638da5cb5b14610148578063b5a26c2b14610173578063bfb231d2146101b0578063d96a094a146101f3578063eea8a7e81461020f57610086565b806306fdde031461008b5780633ccfd60b146100b6578063713d856b146100cd578063793b8c6d1461010a575b600080fd5b34801561009757600080fd5b506100a0610238565b6040516100ad91906110c5565b60405180910390f35b3480156100c257600080fd5b506100cb6102c6565b005b3480156100d957600080fd5b506100f460048036038101906100ef9190611159565b6103bb565b604051610101919061119f565b60405180910390f35b34801561011657600080fd5b50610131600480360381019061012c91906111e6565b6103d3565b60405161013f929190611329565b60405180910390f35b34801561015457600080fd5b5061015d6105ec565b60405161016a9190611368565b60405180910390f35b34801561017f57600080fd5b5061019a60048036038101906101959190611383565b610612565b6040516101a791906113b0565b60405180910390f35b3480156101bc57600080fd5b506101d760048036038101906101d29190611383565b610877565b6040516101ea97969594939291906113d2565b60405180910390f35b61020d60048036038101906102089190611383565b610a51565b005b34801561021b57600080fd5b506102366004803603810190610231919061158b565b610ea1565b005b60008054610245906116b0565b80601f0160208091040260200160405190810160405280929190818152602001828054610271906116b0565b80156102be5780601f10610293576101008083540402835291602001916102be565b820191906000526020600020905b8154815290600101906020018083116102a157829003601f168201915b505050505081565b600160009054906101000a900473ffffffffffffffffffffffffffffffffffffffff1673ffffffffffffffffffffffffffffffffffffffff163373ffffffffffffffffffffffffffffffffffffffff161461032057600080fd5b6000600160009054906101000a900473ffffffffffffffffffffffffffffffffffffffff1673ffffffffffffffffffffffffffffffffffffffff164760405161036890611712565b60006040518083038185875af1925050503d80600081146103a5576040519150601f19603f3d011682016040523d82523d6000602084013e6103aa565b606091505b50509050806103b857600080fd5b50565b60036020528060005260406000206000915090505481565b600460205281600052604060002060205280600052604060002060009150915050806000015490806001016040518060e001604052908160008201548152602001600182018054610423906116b0565b80601f016020809104026020016040519081016040528092919081815260200182805461044f906116b0565b801561049c5780601f106104715761010080835404028352916020019161049c565b820191906000526020600020905b81548152906001019060200180831161047f57829003601f168201915b505050505081526020016002820180546104b5906116b0565b80601f01602080910402602001604051908101604052809291908181526020018280546104e1906116b0565b801561052e5780601f106105035761010080835404028352916020019161052e565b820191906000526020600020905b81548152906001019060200180831161051157829003601f168201915b50505050508152602001600382018054610547906116b0565b80601f0160208091040260200160405190810160405280929190818152602001828054610573906116b0565b80156105c05780601f10610595576101008083540402835291602001916105c0565b820191906000526020600020905b8154815290600101906020018083116105a357829003601f168201915b505050505081526020016004820154815260200160058201548152602001600682015481525050905082565b600160009054906101000a900473ffffffffffffffffffffffffffffffffffffffff1681565b61061a610ff8565b600160009054906101000a900473ffffffffffffffffffffffffffffffffffffffff1673ffffffffffffffffffffffffffffffffffffffff163373ffffffffffffffffffffffffffffffffffffffff161461067457600080fd5b600260008381526020019081526020016000206040518060e0016040529081600082015481526020016001820180546106ac906116b0565b80601f01602080910402602001604051908101604052809291908181526020018280546106d8906116b0565b80156107255780601f106106fa57610100808354040283529160200191610725565b820191906000526020600020905b81548152906001019060200180831161070857829003601f168201915b5050505050815260200160028201805461073e906116b0565b80601f016020809104026020016040519081016040528092919081815260200182805461076a906116b0565b80156107b75780601f1061078c576101008083540402835291602001916107b7565b820191906000526020600020905b81548152906001019060200180831161079a57829003601f168201915b505050505081526020016003820180546107d0906116b0565b80601f01602080910402602001604051908101604052809291908181526020018280546107fc906116b0565b80156108495780601f1061081e57610100808354040283529160200191610849565b820191906000526020600020905b81548152906001019060200180831161082c57829003601f168201915b5050505050815260200160048201548152602001600582015481526020016006820154815250509050919050565b60026020528060005260406000206000915090508060000154908060010180546108a0906116b0565b80601f01602080910402602001604051908101604052809291908181526020018280546108cc906116b0565b80156109195780601f106108ee57610100808354040283529160200191610919565b820191906000526020600020905b8154815290600101906020018083116108fc57829003601f168201915b50505050509080600201805461092e906116b0565b80601f016020809104026020016040519081016040528092919081815260200182805461095a906116b0565b80156109a75780601f1061097c576101008083540402835291602001916109a7565b820191906000526020600020905b81548152906001019060200180831161098a57829003601f168201915b5050505050908060030180546109bc906116b0565b80601f01602080910402602001604051908101604052809291908181526020018280546109e8906116b0565b8015610a355780601f10610a0a57610100808354040283529160200191610a35565b820191906000526020600020905b815481529060010190602001808311610a1857829003601f168201915b5050505050908060040154908060050154908060060154905087565b6000600260008381526020019081526020016000206040518060e001604052908160008201548152602001600182018054610a8b906116b0565b80601f0160208091040260200160405190810160405280929190818152602001828054610ab7906116b0565b8015610b045780601f10610ad957610100808354040283529160200191610b04565b820191906000526020600020905b815481529060010190602001808311610ae757829003601f168201915b50505050508152602001600282018054610b1d906116b0565b80601f0160208091040260200160405190810160405280929190818152602001828054610b49906116b0565b8015610b965780601f10610b6b57610100808354040283529160200191610b96565b820191906000526020600020905b815481529060010190602001808311610b7957829003601f168201915b50505050508152602001600382018054610baf906116b0565b80601f0160208091040260200160405190810160405280929190818152602001828054610bdb906116b0565b8015610c285780601f10610bfd57610100808354040283529160200191610c28565b820191906000526020600020905b815481529060010190602001808311610c0b57829003601f168201915b50505050508152602001600482015481526020016005820154815260200160068201548152505090508060800151341015610c6257600080fd5b60008160c0015111610c7357600080fd5b60006040518060400160405280428152602001838152509050600360003373ffffffffffffffffffffffffffffffffffffffff1673ffffffffffffffffffffffffffffffffffffffff1681526020019081526020016000206000815480929190610cdc90611756565b919050555080600460003373ffffffffffffffffffffffffffffffffffffffff1673ffffffffffffffffffffffffffffffffffffffff1681526020019081526020016000206000600360003373ffffffffffffffffffffffffffffffffffffffff1673ffffffffffffffffffffffffffffffffffffffff16815260200190815260200160002054815260200190815260200160002060008201518160000155602082015181600101600082015181600001556020820151816001019081610da3919061194a565b506040820151816002019081610db9919061194a565b506060820151816003019081610dcf919061194a565b506080820151816004015560a0820151816005015560c08201518160060155505090505060018260c00151610e049190611a1c565b60026000858152602001908152602001600020600601819055507f1cbc5ab135991bd2b6a4b034a04aa2aa086dac1371cb9b16b8b5e2ed6b036bed33600360003373ffffffffffffffffffffffffffffffffffffffff1673ffffffffffffffffffffffffffffffffffffffff168152602001908152602001600020548460000151604051610e9493929190611a50565b60405180910390a1505050565b600160009054906101000a900473ffffffffffffffffffffffffffffffffffffffff1673ffffffffffffffffffffffffffffffffffffffff163373ffffffffffffffffffffffffffffffffffffffff1614610efb57600080fd5b60006040518060e0016040528089815260200188815260200187815260200186815260200185815260200184815260200183815250905080600260008a8152602001908152602001600020600082015181600001556020820151816001019081610f65919061194a565b506040820151816002019081610f7b919061194a565b506060820151816003019081610f91919061194a565b506080820151816004015560a0820151816005015560c082015181600601559050507ffdbe2a012c10ec01592653978eaa09b5ca60b143a0e617505b2ebcbd911ec5b8878584604051610fe693929190611a87565b60405180910390a15050505050505050565b6040518060e00160405280600081526020016060815260200160608152602001606081526020016000815260200160008152602001600081525090565b600081519050919050565b600082825260208201905092915050565b60005b8381101561106f578082015181840152602081019050611054565b60008484015250505050565b6000601f19601f8301169050919050565b600061109782611035565b6110a18185611040565b93506110b1818560208601611051565b6110ba8161107b565b840191505092915050565b600060208201905081810360008301526110df818461108c565b905092915050565b6000604051905090565b600080fd5b600080fd5b600073ffffffffffffffffffffffffffffffffffffffff82169050919050565b6000611126826110fb565b9050919050565b6111368161111b565b811461114157600080fd5b50565b6000813590506111538161112d565b92915050565b60006020828403121561116f5761116e6110f1565b5b600061117d84828501611144565b91505092915050565b6000819050919050565b61119981611186565b82525050565b60006020820190506111b46000830184611190565b92915050565b6111c381611186565b81146111ce57600080fd5b50565b6000813590506111e0816111ba565b92915050565b600080604083850312156111fd576111fc6110f1565b5b600061120b85828601611144565b925050602061121c858286016111d1565b9150509250929050565b61122f81611186565b82525050565b600082825260208201905092915050565b600061125182611035565b61125b8185611235565b935061126b818560208601611051565b6112748161107b565b840191505092915050565b600060e0830160008301516112976000860182611226565b50602083015184820360208601526112af8282611246565b915050604083015184820360408601526112c98282611246565b915050606083015184820360608601526112e38282611246565b91505060808301516112f86080860182611226565b5060a083015161130b60a0860182611226565b5060c083015161131e60c0860182611226565b508091505092915050565b600060408201905061133e6000830185611190565b8181036020830152611350818461127f565b90509392505050565b6113628161111b565b82525050565b600060208201905061137d6000830184611359565b92915050565b600060208284031215611399576113986110f1565b5b60006113a7848285016111d1565b91505092915050565b600060208201905081810360008301526113ca818461127f565b905092915050565b600060e0820190506113e7600083018a611190565b81810360208301526113f9818961108c565b9050818103604083015261140d818861108c565b90508181036060830152611421818761108c565b90506114306080830186611190565b61143d60a0830185611190565b61144a60c0830184611190565b98975050505050505050565b600080fd5b600080fd5b7f4e487b7100000000000000000000000000000000000000000000000000000000600052604160045260246000fd5b6114988261107b565b810181811067ffffffffffffffff821117156114b7576114b6611460565b5b80604052505050565b60006114ca6110e7565b90506114d6828261148f565b919050565b600067ffffffffffffffff8211156114f6576114f5611460565b5b6114ff8261107b565b9050602081019050919050565b82818337600083830152505050565b600061152e611529846114db565b6114c0565b90508281526020810184848401111561154a5761154961145b565b5b61155584828561150c565b509392505050565b600082601f83011261157257611571611456565b5b813561158284826020860161151b565b91505092915050565b600080600080600080600060e0888a0312156115aa576115a96110f1565b5b60006115b88a828b016111d1565b975050602088013567ffffffffffffffff8111156115d9576115d86110f6565b5b6115e58a828b0161155d565b965050604088013567ffffffffffffffff811115611606576116056110f6565b5b6116128a828b0161155d565b955050606088013567ffffffffffffffff811115611633576116326110f6565b5b61163f8a828b0161155d565b94505060806116508a828b016111d1565b93505060a06116618a828b016111d1565b92505060c06116728a828b016111d1565b91505092959891949750929550565b7f4e487b7100000000000000000000000000000000000000000000000000000000600052602260045260246000fd5b600060028204905060018216806116c857607f821691505b6020821081036116db576116da611681565b5b50919050565b600081905092915050565b50565b60006116fc6000836116e1565b9150611707826116ec565b600082019050919050565b600061171d826116ef565b9150819050919050565b7f4e487b7100000000000000000000000000000000000000000000000000000000600052601160045260246000fd5b600061176182611186565b91507fffffffffffffffffffffffffffffffffffffffffffffffffffffffffffffffff820361179357611792611727565b5b600182019050919050565b60008190508160005260206000209050919050565b60006020601f8301049050919050565b600082821b905092915050565b6000600883026118007fffffffffffffffffffffffffffffffffffffffffffffffffffffffffffffffff826117c3565b61180a86836117c3565b95508019841693508086168417925050509392505050565b6000819050919050565b600061184761184261183d84611186565b611822565b611186565b9050919050565b6000819050919050565b6118618361182c565b61187561186d8261184e565b8484546117d0565b825550505050565b600090565b61188a61187d565b611895818484611858565b505050565b5b818110156118b9576118ae600082611882565b60018101905061189b565b5050565b601f8211156118fe576118cf8161179e565b6118d8846117b3565b810160208510156118e7578190505b6118fb6118f3856117b3565b83018261189a565b50505b505050565b600082821c905092915050565b600061192160001984600802611903565b1980831691505092915050565b600061193a8383611910565b9150826002028217905092915050565b61195382611035565b67ffffffffffffffff81111561196c5761196b611460565b5b61197682546116b0565b6119818282856118bd565b600060209050601f8311600181146119b457600084156119a2578287015190505b6119ac858261192e565b865550611a14565b601f1984166119c28661179e565b60005b828110156119ea578489015182556001820191506020850194506020810190506119c5565b86831015611a075784890151611a03601f891682611910565b8355505b6001600288020188555050505b505050505050565b6000611a2782611186565b9150611a3283611186565b9250828203905081811115611a4a57611a49611727565b5b92915050565b6000606082019050611a656000830186611359565b611a726020830185611190565b611a7f6040830184611190565b949350505050565b60006060820190508181036000830152611aa1818661108c565b9050611ab06020830185611190565b611abd6040830184611190565b94935050505056fea26469706673582212202df52a057c59972168f3ce62cb8d6f98dd09f5be1ac3d15cbbbfd82c57a617fa64736f6c63430008180033",
  "linkReferences": {},
  "deployedLinkReferences": {}
}