{
    "_format": "hh-sol-artifact-1",
    "contractName": "Commerce",
    "sourceName": "contracts/Commerce.sol",
    "abi": [
        {
            "inputs": [],
            "stateMutability": "nonpayable",
            "type": "constructor"
        },
        {
            "anonymous": false,
            "inputs": [
                {
                    "indexed": false,
                    "internalType": "address",
                    "name": "buyer",
                    "type": "address"
                },
                {
                    "indexed": false,
                    "internalType": "uint256",
                    "name": "orderId",
                    "type": "uint256"
                },
                {
                    "indexed": false,
                    "internalType": "uint256",
                    "name": "itemId",
                    "type": "uint256"
                }
            ],
            "name": "Buy",
            "type": "event"
        },
        {
            "anonymous": false,
            "inputs": [
                {
                    "indexed": false,
                    "internalType": "string",
                    "name": "name",
                    "type": "string"
                },
                {
                    "indexed": false,
                    "internalType": "uint256",
                    "name": "cost",
                    "type": "uint256"
                },
                {
                    "indexed": false,
                    "internalType": "uint256",
                    "name": "quantity",
                    "type": "uint256"
                }
            ],
            "name": "List",
            "type": "event"
        },
        {
            "inputs": [
                {
                    "internalType": "uint256",
                    "name": "_id",
                    "type": "uint256"
                }
            ],
            "name": "buy",
            "outputs": [],
            "stateMutability": "payable",
            "type": "function"
        },
        {
            "inputs": [
                {
                    "internalType": "uint256",
                    "name": "_id",
                    "type": "uint256"
                }
            ],
            "name": "getListItemById",
            "outputs": [
                {
                    "components": [
                        {
                            "internalType": "uint256",
                            "name": "id",
                            "type": "uint256"
                        },
                        {
                            "internalType": "string",
                            "name": "name",
                            "type": "string"
                        },
                        {
                            "internalType": "string",
                            "name": "category",
                            "type": "string"
                        },
                        {
                            "internalType": "string",
                            "name": "image",
                            "type": "string"
                        },
                        {
                            "internalType": "uint256",
                            "name": "cost",
                            "type": "uint256"
                        },
                        {
                            "internalType": "uint256",
                            "name": "rating",
                            "type": "uint256"
                        },
                        {
                            "internalType": "uint256",
                            "name": "stock",
                            "type": "uint256"
                        }
                    ],
                    "internalType": "struct Commerce.Item",
                    "name": "",
                    "type": "tuple"
                }
            ],
            "stateMutability": "view",
            "type": "function"
        },
        {
            "inputs": [],
            "name": "getName",
            "outputs": [
                {
                    "internalType": "string",
                    "name": "",
                    "type": "string"
                }
            ],
            "stateMutability": "view",
            "type": "function"
        },
        {
            "inputs": [
                {
                    "internalType": "uint256",
                    "name": "",
                    "type": "uint256"
                }
            ],
            "name": "items",
            "outputs": [
                {
                    "internalType": "uint256",
                    "name": "id",
                    "type": "uint256"
                },
                {
                    "internalType": "string",
                    "name": "name",
                    "type": "string"
                },
                {
                    "internalType": "string",
                    "name": "category",
                    "type": "string"
                },
                {
                    "internalType": "string",
                    "name": "image",
                    "type": "string"
                },
                {
                    "internalType": "uint256",
                    "name": "cost",
                    "type": "uint256"
                },
                {
                    "internalType": "uint256",
                    "name": "rating",
                    "type": "uint256"
                },
                {
                    "internalType": "uint256",
                    "name": "stock",
                    "type": "uint256"
                }
            ],
            "stateMutability": "view",
            "type": "function"
        },
        {
            "inputs": [
                {
                    "internalType": "uint256",
                    "name": "_id",
                    "type": "uint256"
                },
                {
                    "internalType": "string",
                    "name": "_name",
                    "type": "string"
                },
                {
                    "internalType": "string",
                    "name": "_category",
                    "type": "string"
                },
                {
                    "internalType": "string",
                    "name": "_image",
                    "type": "string"
                },
                {
                    "internalType": "uint256",
                    "name": "_cost",
                    "type": "uint256"
                },
                {
                    "internalType": "uint256",
                    "name": "_rating",
                    "type": "uint256"
                },
                {
                    "internalType": "uint256",
                    "name": "_stock",
                    "type": "uint256"
                }
            ],
            "name": "list",
            "outputs": [],
            "stateMutability": "nonpayable",
            "type": "function"
        },
        {
            "inputs": [],
            "name": "name",
            "outputs": [
                {
                    "internalType": "string",
                    "name": "",
                    "type": "string"
                }
            ],
            "stateMutability": "view",
            "type": "function"
        },
        {
            "inputs": [
                {
                    "internalType": "address",
                    "name": "",
                    "type": "address"
                }
            ],
            "name": "orderCount",
            "outputs": [
                {
                    "internalType": "uint256",
                    "name": "",
                    "type": "uint256"
                }
            ],
            "stateMutability": "view",
            "type": "function"
        },
        {
            "inputs": [
                {
                    "internalType": "address",
                    "name": "",
                    "type": "address"
                },
                {
                    "internalType": "uint256",
                    "name": "",
                    "type": "uint256"
                }
            ],
            "name": "orders",
            "outputs": [
                {
                    "internalType": "uint256",
                    "name": "time",
                    "type": "uint256"
                },
                {
                    "components": [
                        {
                            "internalType": "uint256",
                            "name": "id",
                            "type": "uint256"
                        },
                        {
                            "internalType": "string",
                            "name": "name",
                            "type": "string"
                        },
                        {
                            "internalType": "string",
                            "name": "category",
                            "type": "string"
                        },
                        {
                            "internalType": "string",
                            "name": "image",
                            "type": "string"
                        },
                        {
                            "internalType": "uint256",
                            "name": "cost",
                            "type": "uint256"
                        },
                        {
                            "internalType": "uint256",
                            "name": "rating",
                            "type": "uint256"
                        },
                        {
                            "internalType": "uint256",
                            "name": "stock",
                            "type": "uint256"
                        }
                    ],
                    "internalType": "struct Commerce.Item",
                    "name": "item",
                    "type": "tuple"
                }
            ],
            "stateMutability": "view",
            "type": "function"
        },
        {
            "inputs": [],
            "name": "owner",
            "outputs": [
                {
                    "internalType": "address",
                    "name": "",
                    "type": "address"
                }
            ],
            "stateMutability": "view",
            "type": "function"
        },
        {
            "inputs": [],
            "name": "withdraw",
            "outputs": [],
            "stateMutability": "nonpayable",
            "type": "function"
        }
    ],
    "bytecode": "0x60806040523480156200001157600080fd5b506040518060400160405280600a81526020017f452d436f6d6d6572636500000000000000000000000000000000000000000000815250600090816200005891906200031a565b5033600160006101000a81548173ffffffffffffffffffffffffffffffffffffffff021916908373ffffffffffffffffffffffffffffffffffffffff16021790555062000401565b600081519050919050565b7f4e487b7100000000000000000000000000000000000000000000000000000000600052604160045260246000fd5b7f4e487b7100000000000000000000000000000000000000000000000000000000600052602260045260246000fd5b600060028204905060018216806200012257607f821691505b602082108103620001385762000137620000da565b5b50919050565b60008190508160005260206000209050919050565b60006020601f8301049050919050565b600082821b905092915050565b600060088302620001a27fffffffffffffffffffffffffffffffffffffffffffffffffffffffffffffffff8262000163565b620001ae868362000163565b95508019841693508086168417925050509392505050565b6000819050919050565b6000819050919050565b6000620001fb620001f5620001ef84620001c6565b620001d0565b620001c6565b9050919050565b6000819050919050565b6200021783620001da565b6200022f620002268262000202565b84845462000170565b825550505050565b600090565b6200024662000237565b620002538184846200020c565b505050565b5b818110156200027b576200026f6000826200023c565b60018101905062000259565b5050565b601f821115620002ca5762000294816200013e565b6200029f8462000153565b81016020851015620002af578190505b620002c7620002be8562000153565b83018262000258565b50505b505050565b600082821c905092915050565b6000620002ef60001984600802620002cf565b1980831691505092915050565b60006200030a8383620002dc565b9150826002028217905092915050565b6200032582620000a0565b67ffffffffffffffff811115620003415762000340620000ab565b5b6200034d825462000109565b6200035a8282856200027f565b600060209050601f8311600181146200039257600084156200037d578287015190505b620003898582620002fc565b865550620003f9565b601f198416620003a2866200013e565b60005b82811015620003cc57848901518255600182019150602085019450602081019050620003a5565b86831015620003ec5784890151620003e8601f891682620002dc565b8355505b6001600288020188555050505b505050505050565b611bc380620004116000396000f3fe6080604052600436106100915760003560e01c80638da5cb5b116100595780638da5cb5b1461017e578063b5a26c2b146101a9578063bfb231d2146101e6578063d96a094a14610229578063eea8a7e81461024557610091565b806306fdde031461009657806317d7de7c146100c15780633ccfd60b146100ec578063713d856b14610103578063793b8c6d14610140575b600080fd5b3480156100a257600080fd5b506100ab61026e565b6040516100b8919061118d565b60405180910390f35b3480156100cd57600080fd5b506100d66102fc565b6040516100e3919061118d565b60405180910390f35b3480156100f857600080fd5b5061010161038e565b005b34801561010f57600080fd5b5061012a60048036038101906101259190611221565b610483565b6040516101379190611267565b60405180910390f35b34801561014c57600080fd5b50610167600480360381019061016291906112ae565b61049b565b6040516101759291906113f1565b60405180910390f35b34801561018a57600080fd5b506101936106b4565b6040516101a09190611430565b60405180910390f35b3480156101b557600080fd5b506101d060048036038101906101cb919061144b565b6106da565b6040516101dd9190611478565b60405180910390f35b3480156101f257600080fd5b5061020d6004803603810190610208919061144b565b61093f565b604051610220979695949392919061149a565b60405180910390f35b610243600480360381019061023e919061144b565b610b19565b005b34801561025157600080fd5b5061026c60048036038101906102679190611653565b610f69565b005b6000805461027b90611778565b80601f01602080910402602001604051908101604052809291908181526020018280546102a790611778565b80156102f45780601f106102c9576101008083540402835291602001916102f4565b820191906000526020600020905b8154815290600101906020018083116102d757829003601f168201915b505050505081565b60606000805461030b90611778565b80601f016020809104026020016040519081016040528092919081815260200182805461033790611778565b80156103845780601f1061035957610100808354040283529160200191610384565b820191906000526020600020905b81548152906001019060200180831161036757829003601f168201915b5050505050905090565b600160009054906101000a900473ffffffffffffffffffffffffffffffffffffffff1673ffffffffffffffffffffffffffffffffffffffff163373ffffffffffffffffffffffffffffffffffffffff16146103e857600080fd5b6000600160009054906101000a900473ffffffffffffffffffffffffffffffffffffffff1673ffffffffffffffffffffffffffffffffffffffff1647604051610430906117da565b60006040518083038185875af1925050503d806000811461046d576040519150601f19603f3d011682016040523d82523d6000602084013e610472565b606091505b505090508061048057600080fd5b50565b60036020528060005260406000206000915090505481565b600460205281600052604060002060205280600052604060002060009150915050806000015490806001016040518060e0016040529081600082015481526020016001820180546104eb90611778565b80601f016020809104026020016040519081016040528092919081815260200182805461051790611778565b80156105645780601f1061053957610100808354040283529160200191610564565b820191906000526020600020905b81548152906001019060200180831161054757829003601f168201915b5050505050815260200160028201805461057d90611778565b80601f01602080910402602001604051908101604052809291908181526020018280546105a990611778565b80156105f65780601f106105cb576101008083540402835291602001916105f6565b820191906000526020600020905b8154815290600101906020018083116105d957829003601f168201915b5050505050815260200160038201805461060f90611778565b80601f016020809104026020016040519081016040528092919081815260200182805461063b90611778565b80156106885780601f1061065d57610100808354040283529160200191610688565b820191906000526020600020905b81548152906001019060200180831161066b57829003601f168201915b505050505081526020016004820154815260200160058201548152602001600682015481525050905082565b600160009054906101000a900473ffffffffffffffffffffffffffffffffffffffff1681565b6106e26110c0565b600160009054906101000a900473ffffffffffffffffffffffffffffffffffffffff1673ffffffffffffffffffffffffffffffffffffffff163373ffffffffffffffffffffffffffffffffffffffff161461073c57600080fd5b600260008381526020019081526020016000206040518060e00160405290816000820154815260200160018201805461077490611778565b80601f01602080910402602001604051908101604052809291908181526020018280546107a090611778565b80156107ed5780601f106107c2576101008083540402835291602001916107ed565b820191906000526020600020905b8154815290600101906020018083116107d057829003601f168201915b5050505050815260200160028201805461080690611778565b80601f016020809104026020016040519081016040528092919081815260200182805461083290611778565b801561087f5780601f106108545761010080835404028352916020019161087f565b820191906000526020600020905b81548152906001019060200180831161086257829003601f168201915b5050505050815260200160038201805461089890611778565b80601f01602080910402602001604051908101604052809291908181526020018280546108c490611778565b80156109115780601f106108e657610100808354040283529160200191610911565b820191906000526020600020905b8154815290600101906020018083116108f457829003601f168201915b5050505050815260200160048201548152602001600582015481526020016006820154815250509050919050565b600260205280600052604060002060009150905080600001549080600101805461096890611778565b80601f016020809104026020016040519081016040528092919081815260200182805461099490611778565b80156109e15780601f106109b6576101008083540402835291602001916109e1565b820191906000526020600020905b8154815290600101906020018083116109c457829003601f168201915b5050505050908060020180546109f690611778565b80601f0160208091040260200160405190810160405280929190818152602001828054610a2290611778565b8015610a6f5780601f10610a4457610100808354040283529160200191610a6f565b820191906000526020600020905b815481529060010190602001808311610a5257829003601f168201915b505050505090806003018054610a8490611778565b80601f0160208091040260200160405190810160405280929190818152602001828054610ab090611778565b8015610afd5780601f10610ad257610100808354040283529160200191610afd565b820191906000526020600020905b815481529060010190602001808311610ae057829003601f168201915b5050505050908060040154908060050154908060060154905087565b6000600260008381526020019081526020016000206040518060e001604052908160008201548152602001600182018054610b5390611778565b80601f0160208091040260200160405190810160405280929190818152602001828054610b7f90611778565b8015610bcc5780601f10610ba157610100808354040283529160200191610bcc565b820191906000526020600020905b815481529060010190602001808311610baf57829003601f168201915b50505050508152602001600282018054610be590611778565b80601f0160208091040260200160405190810160405280929190818152602001828054610c1190611778565b8015610c5e5780601f10610c3357610100808354040283529160200191610c5e565b820191906000526020600020905b815481529060010190602001808311610c4157829003601f168201915b50505050508152602001600382018054610c7790611778565b80601f0160208091040260200160405190810160405280929190818152602001828054610ca390611778565b8015610cf05780601f10610cc557610100808354040283529160200191610cf0565b820191906000526020600020905b815481529060010190602001808311610cd357829003601f168201915b50505050508152602001600482015481526020016005820154815260200160068201548152505090508060800151341015610d2a57600080fd5b60008160c0015111610d3b57600080fd5b60006040518060400160405280428152602001838152509050600360003373ffffffffffffffffffffffffffffffffffffffff1673ffffffffffffffffffffffffffffffffffffffff1681526020019081526020016000206000815480929190610da49061181e565b919050555080600460003373ffffffffffffffffffffffffffffffffffffffff1673ffffffffffffffffffffffffffffffffffffffff1681526020019081526020016000206000600360003373ffffffffffffffffffffffffffffffffffffffff1673ffffffffffffffffffffffffffffffffffffffff16815260200190815260200160002054815260200190815260200160002060008201518160000155602082015181600101600082015181600001556020820151816001019081610e6b9190611a12565b506040820151816002019081610e819190611a12565b506060820151816003019081610e979190611a12565b506080820151816004015560a0820151816005015560c08201518160060155505090505060018260c00151610ecc9190611ae4565b60026000858152602001908152602001600020600601819055507f1cbc5ab135991bd2b6a4b034a04aa2aa086dac1371cb9b16b8b5e2ed6b036bed33600360003373ffffffffffffffffffffffffffffffffffffffff1673ffffffffffffffffffffffffffffffffffffffff168152602001908152602001600020548460000151604051610f5c93929190611b18565b60405180910390a1505050565b600160009054906101000a900473ffffffffffffffffffffffffffffffffffffffff1673ffffffffffffffffffffffffffffffffffffffff163373ffffffffffffffffffffffffffffffffffffffff1614610fc357600080fd5b60006040518060e0016040528089815260200188815260200187815260200186815260200185815260200184815260200183815250905080600260008a815260200190815260200160002060008201518160000155602082015181600101908161102d9190611a12565b5060408201518160020190816110439190611a12565b5060608201518160030190816110599190611a12565b506080820151816004015560a0820151816005015560c082015181600601559050507ffdbe2a012c10ec01592653978eaa09b5ca60b143a0e617505b2ebcbd911ec5b88785846040516110ae93929190611b4f565b60405180910390a15050505050505050565b6040518060e00160405280600081526020016060815260200160608152602001606081526020016000815260200160008152602001600081525090565b600081519050919050565b600082825260208201905092915050565b60005b8381101561113757808201518184015260208101905061111c565b60008484015250505050565b6000601f19601f8301169050919050565b600061115f826110fd565b6111698185611108565b9350611179818560208601611119565b61118281611143565b840191505092915050565b600060208201905081810360008301526111a78184611154565b905092915050565b6000604051905090565b600080fd5b600080fd5b600073ffffffffffffffffffffffffffffffffffffffff82169050919050565b60006111ee826111c3565b9050919050565b6111fe816111e3565b811461120957600080fd5b50565b60008135905061121b816111f5565b92915050565b600060208284031215611237576112366111b9565b5b60006112458482850161120c565b91505092915050565b6000819050919050565b6112618161124e565b82525050565b600060208201905061127c6000830184611258565b92915050565b61128b8161124e565b811461129657600080fd5b50565b6000813590506112a881611282565b92915050565b600080604083850312156112c5576112c46111b9565b5b60006112d38582860161120c565b92505060206112e485828601611299565b9150509250929050565b6112f78161124e565b82525050565b600082825260208201905092915050565b6000611319826110fd565b61132381856112fd565b9350611333818560208601611119565b61133c81611143565b840191505092915050565b600060e08301600083015161135f60008601826112ee565b5060208301518482036020860152611377828261130e565b91505060408301518482036040860152611391828261130e565b915050606083015184820360608601526113ab828261130e565b91505060808301516113c060808601826112ee565b5060a08301516113d360a08601826112ee565b5060c08301516113e660c08601826112ee565b508091505092915050565b60006040820190506114066000830185611258565b81810360208301526114188184611347565b90509392505050565b61142a816111e3565b82525050565b60006020820190506114456000830184611421565b92915050565b600060208284031215611461576114606111b9565b5b600061146f84828501611299565b91505092915050565b600060208201905081810360008301526114928184611347565b905092915050565b600060e0820190506114af600083018a611258565b81810360208301526114c18189611154565b905081810360408301526114d58188611154565b905081810360608301526114e98187611154565b90506114f86080830186611258565b61150560a0830185611258565b61151260c0830184611258565b98975050505050505050565b600080fd5b600080fd5b7f4e487b7100000000000000000000000000000000000000000000000000000000600052604160045260246000fd5b61156082611143565b810181811067ffffffffffffffff8211171561157f5761157e611528565b5b80604052505050565b60006115926111af565b905061159e8282611557565b919050565b600067ffffffffffffffff8211156115be576115bd611528565b5b6115c782611143565b9050602081019050919050565b82818337600083830152505050565b60006115f66115f1846115a3565b611588565b90508281526020810184848401111561161257611611611523565b5b61161d8482856115d4565b509392505050565b600082601f83011261163a5761163961151e565b5b813561164a8482602086016115e3565b91505092915050565b600080600080600080600060e0888a031215611672576116716111b9565b5b60006116808a828b01611299565b975050602088013567ffffffffffffffff8111156116a1576116a06111be565b5b6116ad8a828b01611625565b965050604088013567ffffffffffffffff8111156116ce576116cd6111be565b5b6116da8a828b01611625565b955050606088013567ffffffffffffffff8111156116fb576116fa6111be565b5b6117078a828b01611625565b94505060806117188a828b01611299565b93505060a06117298a828b01611299565b92505060c061173a8a828b01611299565b91505092959891949750929550565b7f4e487b7100000000000000000000000000000000000000000000000000000000600052602260045260246000fd5b6000600282049050600182168061179057607f821691505b6020821081036117a3576117a2611749565b5b50919050565b600081905092915050565b50565b60006117c46000836117a9565b91506117cf826117b4565b600082019050919050565b60006117e5826117b7565b9150819050919050565b7f4e487b7100000000000000000000000000000000000000000000000000000000600052601160045260246000fd5b60006118298261124e565b91507fffffffffffffffffffffffffffffffffffffffffffffffffffffffffffffffff820361185b5761185a6117ef565b5b600182019050919050565b60008190508160005260206000209050919050565b60006020601f8301049050919050565b600082821b905092915050565b6000600883026118c87fffffffffffffffffffffffffffffffffffffffffffffffffffffffffffffffff8261188b565b6118d2868361188b565b95508019841693508086168417925050509392505050565b6000819050919050565b600061190f61190a6119058461124e565b6118ea565b61124e565b9050919050565b6000819050919050565b611929836118f4565b61193d61193582611916565b848454611898565b825550505050565b600090565b611952611945565b61195d818484611920565b505050565b5b818110156119815761197660008261194a565b600181019050611963565b5050565b601f8211156119c65761199781611866565b6119a08461187b565b810160208510156119af578190505b6119c36119bb8561187b565b830182611962565b50505b505050565b600082821c905092915050565b60006119e9600019846008026119cb565b1980831691505092915050565b6000611a0283836119d8565b9150826002028217905092915050565b611a1b826110fd565b67ffffffffffffffff811115611a3457611a33611528565b5b611a3e8254611778565b611a49828285611985565b600060209050601f831160018114611a7c5760008415611a6a578287015190505b611a7485826119f6565b865550611adc565b601f198416611a8a86611866565b60005b82811015611ab257848901518255600182019150602085019450602081019050611a8d565b86831015611acf5784890151611acb601f8916826119d8565b8355505b6001600288020188555050505b505050505050565b6000611aef8261124e565b9150611afa8361124e565b9250828203905081811115611b1257611b116117ef565b5b92915050565b6000606082019050611b2d6000830186611421565b611b3a6020830185611258565b611b476040830184611258565b949350505050565b60006060820190508181036000830152611b698186611154565b9050611b786020830185611258565b611b856040830184611258565b94935050505056fea26469706673582212206d49eb53c1e4afa3e1447c2433f2b1194d89b8f84d13ba5346a8052b2bf81f4d64736f6c63430008180033",
    "linkReferences": {},
    "deployedLinkReferences": {}
}